S01400005265636569766572436F64652E7372656360
S11300000C943E000C945B000C945B000C945B001D
S11300100C945B000C945B000C945B000C945B00F0
S11300200C945B000C945B000C945B000C945B00E0
S11300300C9413010C945B000C945B000C945B0017
S11300400C945B000C945B000C945B000C945B00C0
S11300500C945B000C945B000C945B000C945B00B0
S11300600C945B000C945B000C945B000C945B00A0
S11300700C945B000C945B000C945B0011241FBE79
S1130080CFEFD0E1DEBFCDBF11E0A0E0B1E0E6E408
S1130090F4E002C005900D92A430B107D9F721E035
S11300A0A4E0B1E001C01D92A431B207E1F70E94BF
S11300B084010C9421020C940000F89480E2809353
S11300C06F0008951092C00088E98093C10086E013
S11300D08093C20083E390E09093C5008093C400B2
S11300E00895BC01209102013091030112161306F8
S11300F0DCF027C022B9A3EFB1E01197F1F700C0FB
S1130100000012B8E3EFF1E03197F1F700C000000E
S1130110019781F78FE493EC0197F1F700C0000099
S11301204150510931F408C043E050E068EC30E03C
S113013021E0862F932FDECF809101018093C600AA
S113014008958091020190910301181619060CF488
S113015069C0809100018093C60048E050E0E8EC5B
S113016080E091E01AC092B9A3EFB1E01197F1F7E2
S113017000C0000012B8A3EFB1E01197F1F700C07E
S113018000002150310979F7AFE4B3EC1197F1F78E
S113019000C000004150510919F02E2F382FE3CF31
S11301A028E938E091E092B9E7EEF3E03197F1F70E
S11301B000C0000012B8A7EEB3E01197F1F700C039
S11301C000002150310979F7CB0164E670E00E9408
S11301D0EB0160930A0170930B01605D6093C600AC
S11301E0BFEFE1E1FAE7B150E040F040E1F700C0D1
S11301F000008CED95E021E022B9A3EFB1E0119766
S1130200F1F700C0000012B8E3EFF1E03197F1F725
S113021000C00000019781F784E690E09093030109
S11302208093020108951F920F920FB60F9211242A
S11302302F933F934F935F938F939F9380910601E6
S1130240909107018E31910538F082E090E090930F
S11302500501809304014DC02091040130910501F2
S1130260232B79F4809186009091870090930F015D
S113027080930E0181E090E0909305018093040146
S113028038C020910401309105012130310589F5F0
S1130290209186003091870030931301209312013E
S11302A0209112013091130140910E0150910F01E0
S11302B0241B350B30931101209310012091100160
S11302C0309111014091080150910901240F351F0B
S11302D030930901209308010196909307018093BC
S11302E00601809112019091130190930F01809364
S11302F00E019F918F915F914F913F912F910F909C
S11303000FBE0F901F90189582E4809381000E9485
S11303105D000E94620081E081B978940F2EF6E9B5
S1130320CF2EF6E8DF2EEE24E394F12CF02D80910D
S11303300401909105010297D1F7809108019091F1
S1130340090160910601709107010E94D701709321
S1130350110160931001209110013091110140E0CE
S113036050E0C701B6010E94FF0130930D012093B4
S11303700C01C901895C9109CB9760F48091020159
S1130380909103014E979093030180930201C90158
S11303900E9471001092050110920401109209014B
S11303A0109208011092070110920601C0CFAA1BF7
S11303B0BB1B51E107C0AA1FBB1FA617B70710F04C
S11303C0A61BB70B881F991F5A95A9F7809590957E
S11303D0BC01CD01089597FB072E16F4009407D0B5
S11303E077FD09D00E94D70107FC05D03EF4909513
S11303F081959F4F0895709561957F4F0895A1E26F
S11304001A2EAA1BBB1BFD010DC0AA1FBB1FEE1F8A
S1130410FF1FA217B307E407F50720F0A21BB30BD5
S1130420E40BF50B661F771F881F991F1A9469F751
S113043060957095809590959B01AC01BD01CF01AD
S10904400895F894FFCFBB
S107044644486400BE
S9030000FC
