:100000000C943E000C948E030C94E1030C945B0062
:100010000C945B000C945B000C945B000C945B00F4
:100020000C945B000C945B000C945B000C945B00E4
:100030000C945B000C945B000C945B000C945B00D4
:100040000C945B000C945B000C945B000C945B00C4
:100050000C9402040C945B000C945B000C945B0009
:100060000C945B000C945B000C945B000C945B00A4
:100070000C945B000C945B000C945B0011241FBE7D
:10008000CFEFD0E1DEBFCDBF11E0A0E0B1E0E2E50F
:10009000F9E002C005900D92AC30B107D9F721E02C
:1000A000ACE0B1E001C01D92A731B207E1F70E94B8
:1000B00068040C94A7040C94000018B8E1EEF4E076
:1000C0003197F1F700C00000982F92959F709068CB
:1000D00098B9E1EEF4E03197F1F700C000009058D4
:1000E00098B9E1EEF4E03197F1F700C000008F70AD
:1000F000806888B9E1EEF4E03197F1F700C00000C4
:10010000805888B985ED96E00197F1F700C00000AE
:10011000089587B18F6C87B983E30E945D0082E305
:100120000E945D008CE20E945D008CE00E945D00F8
:1001300081E00E945D00089590E498B9E1EEF4E05A
:100140003197F1F700C00000982F92959F70906C46
:1001500098B9E1EEF4E03197F1F700C00000905853
:1001600098B9E1EEF4E03197F1F700C000008F702C
:10017000806C88B9E1EEF4E03197F1F700C000003F
:10018000805888B985ED96E00197F1F700C000002E
:1001900008958A30910574F09C012A5031092A355E
:1001A000310558F0845691098438934048F084E032
:1001B00090E0089581E090E0089582E090E0089555
:1001C00083E090E00895CF92DF92EF92FF920F9339
:1001D0001F93CF93DF93082FC92E162FD72E0E947F
:1001E000C900EC01812F9D2D0E94C9007C0188E48B
:1001F0000E949C0080E50E949C008AE30E949C0073
:1002000080E20E949C00C230D10521F480E20E946D
:100210009C002EC0C130D10539F480E20E949C00C0
:1002200080E20E949C002FC0C230D10509F11CF46D
:10023000219769F528C0C330D10571F0249739F5AD
:10024000802F9C2D68EE73E00E947F04082FC92E3A
:1002500080E3860F0E949C00802F9C2D64E670E056
:100260000E947F04082FC92E80E3860F0E949C0005
:10027000802F9C2D6AE070E00E947F04082F80E3AD
:10028000860F0E949C0080E3800F0E949C0080ECFF
:100290000E945D0081E40E949C008DE40E949C000D
:1002A0008DE40E949C008FE40E949C008AE30E94DF
:1002B0009C0080E20E949C0081E0E816F10421F499
:1002C00080E20E949C0034C082E0E816F10429F12B
:1002D00024F4EA94EF2881F52BC083E0E816F104BA
:1002E00081F084E0E816F10439F5812F9D2D68EE48
:1002F00073E00E947F04182FD92E80E3860F0E949E
:100300009C00812F9D2D64E670E00E947F04182FD1
:10031000D92E80E3860F0E949C00812F9D2D6AE0DC
:1003200070E00E947F04182F80E3860F0E949C00DB
:1003300080E3810F0E949C008FE20E949C0081E379
:100340000E949C0082E30E949C00DF91CF911F914C
:100350000F91FF90EF90DF90CF900895CF92DF92B2
:10036000EF92FF920F931F93CF93DF93D82F092F14
:10037000C62F172F0E94C9006C018C2F912F0E944D
:10038000C9007C018BE40E949C0089E40E949C00CF
:100390008CE40E949C008CE40E949C0083E50E94F7
:1003A0009C008AE30E949C0080E20E949C0082E004
:1003B000C816D10429F124F4CA94CD2861F12FC0C4
:1003C00083E0C816D10481F084E0C816D10439F561
:1003D0008D2F902F68EE73E00E947F04D82F092F95
:1003E00080E3860F0E949C008D2F902F64E670E0C2
:1003F0000E947F04D82F092F80E3860F0E949C0063
:100400008D2F902F6AE070E00E947F04D82F80E348
:10041000860F0E949C0080E38D0F0E949C0080EC60
:100420000E945D0084E40E949C0085E40E949C0080
:1004300081E40E949C0084E50E949C0088E40E9464
:100440009C0083E50E949C008AE30E949C0080E25D
:100450000E949C0082E0E816F10429F124F4EA9459
:10046000EF2861F12FC083E0E816F10481F084E009
:10047000E816F10439F58C2F912F68EE73E00E9495
:100480007F04C82F192F80E3860F0E949C008C2FB9
:10049000912F64E670E00E947F04C82F192F80E33B
:1004A000860F0E949C008C2F912F6AE070E00E94C2
:1004B0007F04C82F80E3860F0E949C0080E38C0F8E
:1004C0000E949C00DF91CF911F910F91FF90EF90C0
:1004D000DF90CF900895CF92DF92EF92FF920F932B
:1004E0001F93CF93DF93D82F092FC62F172F0E946A
:1004F000C9006C018C2F912F0E94C9007C0184E5FA
:100500000E949C0085E40E949C0081E40E949C0063
:100510008DE40E949C0080E20E949C0081E30E9486
:100520009C008AE30E949C0080E20E949C0082E082
:10053000C816D10429F124F4CA94CD2861F12FC042
:1005400083E0C816D10481F084E0C816D10439F5DF
:100550008D2F902F68EE73E00E947F04D82F092F13
:1005600080E3860F0E949C008D2F902F64E670E040
:100570000E947F04D82F092F80E3860F0E949C00E1
:100580008D2F902F6AE070E00E947F04D82F80E3C7
:10059000860F0E949C0080E38D0F0E949C0080ECDF
:1005A0000E945D0084E50E949C0085E40E949C00FE
:1005B00081E40E949C008DE40E949C0080E20E94E5
:1005C0009C0082E30E949C008AE30E949C0080E2DF
:1005D0000E949C0082E0E816F10429F124F4EA94D8
:1005E000EF2861F12FC083E0E816F10481F084E088
:1005F000E816F10439F58C2F912F68EE73E00E9414
:100600007F04C82F192F80E3860F0E949C008C2F37
:10061000912F64E670E00E947F04C82F192F80E3B9
:10062000860F0E949C008C2F912F6AE070E00E9440
:100630007F04C82F80E3860F0E949C0080E38C0F0C
:100640000E949C00DF91CF911F910F91FF90EF903E
:10065000DF90CF90089520910C0130910D01809191
:100660000E0190910F012817390719F081E00E94BF
:100670005D0082E00E945D0081EE94E00197F1F759
:1006800000C0000080910E0190910F01009769F465
:1006900010920D0110920C01E0E0F1E06281738193
:1006A000808191810E94E30008958130910579F461
:1006B00081E090E090930D0180930C01E0E0F1E087
:1006C00066817781848195810E94AE0108950297A9
:1006D00071F482E090E090930D0180930C01E0E0D2
:1006E000F1E062857385808591850E946B02089593
:1006F000F89483E08DBB8FE0809369000895109299
:10070000C00088E98093C10086E08093C20083E343
:1007100090E09093C5008093C40008951F920F92BB
:100720000FB60F9211242F933F938F939F93EF93C4
:10073000FF9380910201909103011816190694F01D
:100740002FEF88E09DE3215080409040E1F700C00A
:1007500000008CE090E0909303018093020181E01F
:100760008CBB24C02091000130910101232B19F48E
:1007700081E08CBB1BC00197909303018093020121
:1007800082E390E03CE028E032B9E7E8F3E131971A
:10079000F1F700C0000022B9E7E8F3E13197F1F783
:1007A00000C00000019781F781E08CBBFF91EF91C1
:1007B0009F918F913F912F910F900FBE0F901F909F
:1007C00018951F920F920FB60F9211248F939F933B
:1007D00080910E0190910F0101968330910529F0CF
:1007E00090930F0180930E0104C010920F0110929C
:1007F0000E0182E08CBB9F918F910F900FBE0F90E6
:100800001F9018951F920F920FB60F9211242F93DD
:100810008F939F93EF93FF938091C6008093120173
:10082000813381F480910001909101014E972AF06B
:10083000909301018093000141C010920101109238
:1008400000013CC0823341F4E0E0F1E08481958115
:1008500001969583848332C0833341F4E0E0F1E074
:100860008681978101969783868328C0843341F4DB
:10087000E0E0F1E080859185C296918780871EC077
:10088000853341F4E0E0F1E082859385C296938759
:10089000828714C0863381F42FE786E998E92150D6
:1008A00080409040E1F700C0000084E690E0909323
:1008B00001018093000102C08093C600FF91EF9177
:1008C0009F918F912F910F900FBE0F901F901895B1
:1008D00083ED90E30197F1F700C000000E948900CA
:1008E0000E9478030E947F038CE081B988E082B97E
:1008F000789481E00E945D000E942B03FDCF97FB5E
:10090000072E16F4009407D077FD09D00E949304B7
:1009100007FC05D03EF4909581959F4F0895709502
:1009200061957F4F0895AA1BBB1B51E107C0AA1F09
:10093000BB1FA617B70710F0A61BB70B881F991F80
:100940005A95A9F780959095BC01CD010895F8942A
:02095000FFCFD7
:0C0952006400B004000000000000000081
:00000001FF
